{
	"data": {
		"bytecode": {
			"linkReferences": {},
			"object": "6080604052348015600e575f80fd5b505f600281905550611a0d806100235f395ff3fe60806040526004361061006f575f3560e01c80636fa4ec271161004d5780636fa4ec2714610115578063771a3a1d1461013f578063c1917e7914610169578063c99e7333146101915761006f565b8063124c128e1461007357806313c3ea33146100b9578063515a39b6146100d5575b5f80fd5b34801561007e575f80fd5b5061009960048036038101906100949190610dcb565b6101cd565b6040516100b09b9a99989796959493929190610f9d565b60405180910390f35b6100d360048036038101906100ce9190610dcb565b6104a0565b005b3480156100e0575f80fd5b506100fb60048036038101906100f6919061108c565b61082e565b60405161010c9594939291906110b7565b60405180910390f35b348015610120575f80fd5b50610129610892565b6040516101369190611108565b60405180910390f35b34801561014a575f80fd5b50610153610898565b6040516101609190611108565b60405180910390f35b348015610174575f80fd5b5061018f600480360381019061018a9190610dcb565b61089d565b005b34801561019c575f80fd5b506101b760048036038101906101b29190611277565b610aad565b6040516101c49190611108565b60405180910390f35b5f6060805f60605f805f60605f805f805f8e81526020019081526020015f209050805f01548160010182600201836003015f9054906101000a900460ff168460040185600501548660060154876007015f9054906101000a900473ffffffffffffffffffffffffffffffffffffffff168860080189600901548a600a015f9054906101000a900460ff168980546102639061136f565b80601f016020809104026020016040519081016040528092919081815260200182805461028f9061136f565b80156102da5780601f106102b1576101008083540402835291602001916102da565b820191905f5260205f20905b8154815290600101906020018083116102bd57829003601f168201915b505050505099508880546102ed9061136f565b80601f01602080910402602001604051908101604052809291908181526020018280546103199061136f565b80156103645780601f1061033b57610100808354040283529160200191610364565b820191905f5260205f20905b81548152906001019060200180831161034757829003601f168201915b505050505098508680546103779061136f565b80601f01602080910402602001604051908101604052809291908181526020018280546103a39061136f565b80156103ee5780601f106103c5576101008083540402835291602001916103ee565b820191905f5260205f20905b8154815290600101906020018083116103d157829003601f168201915b505050505096508280548060200260200160405190810160405280929190818152602001828054801561047357602002820191905f5260205f20905b815f9054906101000a900473ffffffffffffffffffffffffffffffffffffffff1673ffffffffffffffffffffffffffffffffffffffff168152602001906001019080831161042a575b505050505092509b509b509b509b509b509b509b509b509b509b509b505091939597999b90929496989a50565b805f73ffffffffffffffffffffffffffffffffffffffff165f808381526020019081526020015f206007015f9054906101000a900473ffffffffffffffffffffffffffffffffffffffff1673ffffffffffffffffffffffffffffffffffffffff1603610541576040517f08c379a0000000000000000000000000000000000000000000000000000000008152600401610538906113e9565b60405180910390fd5b815f808281526020019081526020015f20600a015f9054906101000a900460ff16156105a2576040517f08c379a000000000000000000000000000000000000000000000000000000000815260040161059990611451565b60405180910390fd5b5f805f8581526020019081526020015f2090505f6064600883600501546105c9919061149c565b6105d3919061150a565b90505f8183600501546105e6919061153a565b9050826005015434101561062f576040517f08c379a0000000000000000000000000000000000000000000000000000000008152600401610626906115dd565b60405180910390fd5b826007015f9054906101000a900473ffffffffffffffffffffffffffffffffffffffff1673ffffffffffffffffffffffffffffffffffffffff166108fc8290811502906040515f60405180830381858888f19350505050158015610695573d5f803e3d5ffd5b508260080133908060018154018082558091505060019003905f5260205f20015f9091909190916101000a81548173ffffffffffffffffffffffffffffffffffffffff021916908373ffffffffffffffffffffffffffffffffffffffff160217905550600143610705919061153a565b4083600901819055506040518060c001604052808781526020013373ffffffffffffffffffffffffffffffffffffffff168152602001828152602001838152602001846009015481526020014281525060015f856009015481526020019081526020015f205f820151815f01556020820151816001015f6101000a81548173ffffffffffffffffffffffffffffffffffffffff021916908373ffffffffffffffffffffffffffffffffffffffff16021790555060408201518160020155606082015181600301556080820151816004015560a082015181600501559050507f96836526637df41a0181017d35eca90aea5d39f47fc680cc0811179dfa01996e86338385876009015460405161081e9594939291906115fb565b60405180910390a1505050505050565b5f805f805f8060015f8881526020019081526020015f209050805f0154816001015f9054906101000a900473ffffffffffffffffffffffffffffffffffffffff16826002015483600301548460050154955095509550955095505091939590929450565b60025481565b600881565b805f73ffffffffffffffffffffffffffffffffffffffff165f808381526020019081526020015f206007015f9054906101000a900473ffffffffffffffffffffffffffffffffffffffff1673ffffffffffffffffffffffffffffffffffffffff160361093e576040517f08c379a0000000000000000000000000000000000000000000000000000000008152600401610935906113e9565b60405180910390fd5b815f808281526020019081526020015f20600a015f9054906101000a900460ff161561099f576040517f08c379a000000000000000000000000000000000000000000000000000000000815260040161099690611451565b60405180910390fd5b823373ffffffffffffffffffffffffffffffffffffffff165f808381526020019081526020015f206007015f9054906101000a900473ffffffffffffffffffffffffffffffffffffffff1673ffffffffffffffffffffffffffffffffffffffff1614610a40576040517f08c379a0000000000000000000000000000000000000000000000000000000008152600401610a37906116bc565b60405180910390fd5b5f805f8681526020019081526020015f209050600181600a015f6101000a81548160ff0219169083151502179055507fb27347ca9471103ded6b8b466bf4643dd4869bc7b0137003ea8d2fd1a6e7758d85604051610a9e9190611108565b60405180910390a15050505050565b5f60025f815480929190610ac0906116da565b9190505550604051806101600160405280600254815260200185815260200184815260200183151581526020018681526020018781526020015f81526020013373ffffffffffffffffffffffffffffffffffffffff1681526020015f67ffffffffffffffff811115610b3557610b34611129565b5b604051908082528060200260200182016040528015610b635781602001602082028036833780820191505090505b5081526020015f801b81526020015f15158152505f8060025481526020019081526020015f205f820151815f01556020820151816001019081610ba691906118be565b506040820151816002019081610bbc91906118be565b506060820151816003015f6101000a81548160ff0219169083151502179055506080820151816004019081610bf191906118be565b5060a0820151816005015560c0820151816006015560e0820151816007015f6101000a81548173ffffffffffffffffffffffffffffffffffffffff021916908373ffffffffffffffffffffffffffffffffffffffff160217905550610100820151816008019080519060200190610c69929190610ce5565b50610120820151816009015561014082015181600a015f6101000a81548160ff0219169083151502179055509050507f0d738af278540540083f5d8180dd9a02dc202474bcb20ef35f68b6ab5aeaaf44600254338888604051610ccf949392919061198d565b60405180910390a1600254905095945050505050565b828054828255905f5260205f20908101928215610d5b579160200282015b82811115610d5a578251825f6101000a81548173ffffffffffffffffffffffffffffffffffffffff021916908373ffffffffffffffffffffffffffffffffffffffff16021790555091602001919060010190610d03565b5b509050610d689190610d6c565b5090565b5b80821115610d83575f815f905550600101610d6d565b5090565b5f604051905090565b5f80fd5b5f80fd5b5f819050919050565b610daa81610d98565b8114610db4575f80fd5b50565b5f81359050610dc581610da1565b92915050565b5f60208284031215610de057610ddf610d90565b5b5f610ded84828501610db7565b91505092915050565b610dff81610d98565b82525050565b5f81519050919050565b5f82825260208201905092915050565b8281835e5f83830152505050565b5f601f19601f8301169050919050565b5f610e4782610e05565b610e518185610e0f565b9350610e61818560208601610e1f565b610e6a81610e2d565b840191505092915050565b5f8115159050919050565b610e8981610e75565b82525050565b5f73ffffffffffffffffffffffffffffffffffffffff82169050919050565b5f610eb882610e8f565b9050919050565b610ec881610eae565b82525050565b5f81519050919050565b5f82825260208201905092915050565b5f819050602082019050919050565b610f0081610eae565b82525050565b5f610f118383610ef7565b60208301905092915050565b5f602082019050919050565b5f610f3382610ece565b610f3d8185610ed8565b9350610f4883610ee8565b805f5b83811015610f78578151610f5f8882610f06565b9750610f6a83610f1d565b925050600181019050610f4b565b5085935050505092915050565b5f819050919050565b610f9781610f85565b82525050565b5f61016082019050610fb15f83018e610df6565b8181036020830152610fc3818d610e3d565b90508181036040830152610fd7818c610e3d565b9050610fe6606083018b610e80565b8181036080830152610ff8818a610e3d565b905061100760a0830189610df6565b61101460c0830188610df6565b61102160e0830187610ebf565b8181036101008301526110348186610f29565b9050611044610120830185610f8e565b611052610140830184610e80565b9c9b505050505050505050505050565b61106b81610f85565b8114611075575f80fd5b50565b5f8135905061108681611062565b92915050565b5f602082840312156110a1576110a0610d90565b5b5f6110ae84828501611078565b91505092915050565b5f60a0820190506110ca5f830188610df6565b6110d76020830187610ebf565b6110e46040830186610df6565b6110f16060830185610df6565b6110fe6080830184610df6565b9695505050505050565b5f60208201905061111b5f830184610df6565b92915050565b5f80fd5b5f80fd5b7f4e487b71000000000000000000000000000000000000000000000000000000005f52604160045260245ffd5b61115f82610e2d565b810181811067ffffffffffffffff8211171561117e5761117d611129565b5b80604052505050565b5f611190610d87565b905061119c8282611156565b919050565b5f67ffffffffffffffff8211156111bb576111ba611129565b5b6111c482610e2d565b9050602081019050919050565b828183375f83830152505050565b5f6111f16111ec846111a1565b611187565b90508281526020810184848401111561120d5761120c611125565b5b6112188482856111d1565b509392505050565b5f82601f83011261123457611233611121565b5b81356112448482602086016111df565b91505092915050565b61125681610e75565b8114611260575f80fd5b50565b5f813590506112718161124d565b92915050565b5f805f805f60a086880312156112905761128f610d90565b5b5f61129d88828901610db7565b955050602086013567ffffffffffffffff8111156112be576112bd610d94565b5b6112ca88828901611220565b945050604086013567ffffffffffffffff8111156112eb576112ea610d94565b5b6112f788828901611220565b935050606086013567ffffffffffffffff81111561131857611317610d94565b5b61132488828901611220565b925050608061133588828901611263565b9150509295509295909350565b7f4e487b71000000000000000000000000000000000000000000000000000000005f52602260045260245ffd5b5f600282049050600182168061138657607f821691505b60208210810361139957611398611342565b5b50919050565b7f5472697020646f6573206e6f74206578697374000000000000000000000000005f82015250565b5f6113d3601383610e0f565b91506113de8261139f565b602082019050919050565b5f6020820190508181035f830152611400816113c7565b9050919050565b7f5472697020616c726561647920636f6d706c65746564000000000000000000005f82015250565b5f61143b601683610e0f565b915061144682611407565b602082019050919050565b5f6020820190508181035f8301526114688161142f565b9050919050565b7f4e487b71000000000000000000000000000000000000000000000000000000005f52601160045260245ffd5b5f6114a682610d98565b91506114b183610d98565b92508282026114bf81610d98565b915082820484148315176114d6576114d561146f565b5b5092915050565b7f4e487b71000000000000000000000000000000000000000000000000000000005f52601260045260245ffd5b5f61151482610d98565b915061151f83610d98565b92508261152f5761152e6114dd565b5b828204905092915050565b5f61154482610d98565b915061154f83610d98565b92508282039050818111156115675761156661146f565b5b92915050565b7f496e73756666696369656e742066756e647320746f206a6f696e2074686520745f8201527f7269700000000000000000000000000000000000000000000000000000000000602082015250565b5f6115c7602383610e0f565b91506115d28261156d565b604082019050919050565b5f6020820190508181035f8301526115f4816115bb565b9050919050565b5f60a08201905061160e5f830188610df6565b61161b6020830187610ebf565b6116286040830186610df6565b6116356060830185610df6565b6116426080830184610f8e565b9695505050505050565b7f4f6e6c7920746865206472697665722063616e20706572666f726d20746869735f8201527f20616374696f6e00000000000000000000000000000000000000000000000000602082015250565b5f6116a6602783610e0f565b91506116b18261164c565b604082019050919050565b5f6020820190508181035f8301526116d38161169a565b9050919050565b5f6116e482610d98565b91507fffffffffffffffffffffffffffffffffffffffffffffffffffffffffffffffff82036117165761171561146f565b5b600182019050919050565b5f819050815f5260205f209050919050565b5f6020601f8301049050919050565b5f82821b905092915050565b5f6008830261177d7fffffffffffffffffffffffffffffffffffffffffffffffffffffffffffffffff82611742565b6117878683611742565b95508019841693508086168417925050509392505050565b5f819050919050565b5f6117c26117bd6117b884610d98565b61179f565b610d98565b9050919050565b5f819050919050565b6117db836117a8565b6117ef6117e7826117c9565b84845461174e565b825550505050565b5f90565b6118036117f7565b61180e8184846117d2565b505050565b5b81811015611831576118265f826117fb565b600181019050611814565b5050565b601f8211156118765761184781611721565b61185084611733565b8101602085101561185f578190505b61187361186b85611733565b830182611813565b50505b505050565b5f82821c905092915050565b5f6118965f198460080261187b565b1980831691505092915050565b5f6118ae8383611887565b9150826002028217905092915050565b6118c782610e05565b67ffffffffffffffff8111156118e0576118df611129565b5b6118ea825461136f565b6118f5828285611835565b5f60209050601f831160018114611926575f8415611914578287015190505b61191e85826118a3565b865550611985565b601f19841661193486611721565b5f5b8281101561195b57848901518255600182019150602085019450602081019050611936565b868310156119785784890151611974601f891682611887565b8355505b6001600288020188555050505b505050505050565b5f6080820190506119a05f830187610df6565b6119ad6020830186610ebf565b6119ba6040830185610df6565b81810360608301526119cc8184610e3d565b90509594505050505056fea26469706673582212200aeb1ddc1c9f5f5d27d81a51db6477ff2a5473b5a8b87324687befb2c78674e664736f6c634300081a0033",
			"opcodes": "PUSH1 0x80 PUSH1 0x40 MSTORE CALLVALUE DUP1 ISZERO PUSH1 0xE JUMPI PUSH0 DUP1 REVERT JUMPDEST POP PUSH0 PUSH1 0x2 DUP2 SWAP1 SSTORE POP PUSH2 0x1A0D DUP1 PUSH2 0x23 PUSH0 CODECOPY PUSH0 RETURN INVALID PUSH1 0x80 PUSH1 0x40 MSTORE PUSH1 0x4 CALLDATASIZE LT PUSH2 0x6F JUMPI PUSH0 CALLDATALOAD PUSH1 0xE0 SHR DUP1 PUSH4 0x6FA4EC27 GT PUSH2 0x4D JUMPI DUP1 PUSH4 0x6FA4EC27 EQ PUSH2 0x115 JUMPI DUP1 PUSH4 0x771A3A1D EQ PUSH2 0x13F JUMPI DUP1 PUSH4 0xC1917E79 EQ PUSH2 0x169 JUMPI DUP1 PUSH4 0xC99E7333 EQ PUSH2 0x191 JUMPI PUSH2 0x6F JUMP JUMPDEST DUP1 PUSH4 0x124C128E EQ PUSH2 0x73 JUMPI DUP1 PUSH4 0x13C3EA33 EQ PUSH2 0xB9 JUMPI DUP1 PUSH4 0x515A39B6 EQ PUSH2 0xD5 JUMPI JUMPDEST PUSH0 DUP1 REVERT JUMPDEST CALLVALUE DUP1 ISZERO PUSH2 0x7E JUMPI PUSH0 DUP1 REVERT JUMPDEST POP PUSH2 0x99 PUSH1 0x4 DUP1 CALLDATASIZE SUB DUP2 ADD SWAP1 PUSH2 0x94 SWAP2 SWAP1 PUSH2 0xDCB JUMP JUMPDEST PUSH2 0x1CD JUMP JUMPDEST PUSH1 0x40 MLOAD PUSH2 0xB0 SWAP12 SWAP11 SWAP10 SWAP9 SWAP8 SWAP7 SWAP6 SWAP5 SWAP4 SWAP3 SWAP2 SWAP1 PUSH2 0xF9D JUMP JUMPDEST PUSH1 0x40 MLOAD DUP1 SWAP2 SUB SWAP1 RETURN JUMPDEST PUSH2 0xD3 PUSH1 0x4 DUP1 CALLDATASIZE SUB DUP2 ADD SWAP1 PUSH2 0xCE SWAP2 SWAP1 PUSH2 0xDCB JUMP JUMPDEST PUSH2 0x4A0 JUMP JUMPDEST STOP JUMPDEST CALLVALUE DUP1 ISZERO PUSH2 0xE0 JUMPI PUSH0 DUP1 REVERT JUMPDEST POP PUSH2 0xFB PUSH1 0x4 DUP1 CALLDATASIZE SUB DUP2 ADD SWAP1 PUSH2 0xF6 SWAP2 SWAP1 PUSH2 0x108C JUMP JUMPDEST PUSH2 0x82E JUMP JUMPDEST PUSH1 0x40 MLOAD PUSH2 0x10C SWAP6 SWAP5 SWAP4 SWAP3 SWAP2 SWAP1 PUSH2 0x10B7 JUMP JUMPDEST PUSH1 0x40 MLOAD DUP1 SWAP2 SUB SWAP1 RETURN JUMPDEST CALLVALUE DUP1 ISZERO PUSH2 0x120 JUMPI PUSH0 DUP1 REVERT JUMPDEST POP PUSH2 0x129 PUSH2 0x892 JUMP JUMPDEST PUSH1 0x40 MLOAD PUSH2 0x136 SWAP2 SWAP1 PUSH2 0x1108 JUMP JUMPDEST PUSH1 0x40 MLOAD DUP1 SWAP2 SUB SWAP1 RETURN JUMPDEST CALLVALUE DUP1 ISZERO PUSH2 0x14A JUMPI PUSH0 DUP1 REVERT JUMPDEST POP PUSH2 0x153 PUSH2 0x898 JUMP JUMPDEST PUSH1 0x40 MLOAD PUSH2 0x160 SWAP2 SWAP1 PUSH2 0x1108 JUMP JUMPDEST PUSH1 0x40 MLOAD DUP1 SWAP2 SUB SWAP1 RETURN JUMPDEST CALLVALUE DUP1 ISZERO PUSH2 0x174 JUMPI PUSH0 DUP1 REVERT JUMPDEST POP PUSH2 0x18F PUSH1 0x4 DUP1 CALLDATASIZE SUB DUP2 ADD SWAP1 PUSH2 0x18A SWAP2 SWAP1 PUSH2 0xDCB JUMP JUMPDEST PUSH2 0x89D JUMP JUMPDEST STOP JUMPDEST CALLVALUE DUP1 ISZERO PUSH2 0x19C JUMPI PUSH0 DUP1 REVERT JUMPDEST POP PUSH2 0x1B7 PUSH1 0x4 DUP1 CALLDATASIZE SUB DUP2 ADD SWAP1 PUSH2 0x1B2 SWAP2 SWAP1 PUSH2 0x1277 JUMP JUMPDEST PUSH2 0xAAD JUMP JUMPDEST PUSH1 0x40 MLOAD PUSH2 0x1C4 SWAP2 SWAP1 PUSH2 0x1108 JUMP JUMPDEST PUSH1 0x40 MLOAD DUP1 SWAP2 SUB SWAP1 RETURN JUMPDEST PUSH0 PUSH1 0x60 DUP1 PUSH0 PUSH1 0x60 PUSH0 DUP1 PUSH0 PUSH1 0x60 PUSH0 DUP1 PUSH0 DUP1 PUSH0 DUP15 DUP2 MSTORE PUSH1 0x20 ADD SWAP1 DUP2 MSTORE PUSH1 0x20 ADD PUSH0 KECCAK256 SWAP1 POP DUP1 PUSH0 ADD SLOAD DUP2 PUSH1 0x1 ADD DUP3 PUSH1 0x2 ADD DUP4 PUSH1 0x3 ADD PUSH0 SWAP1 SLOAD SWAP1 PUSH2 0x100 EXP SWAP1 DIV PUSH1 0xFF AND DUP5 PUSH1 0x4 ADD DUP6 PUSH1 0x5 ADD SLOAD DUP7 PUSH1 0x6 ADD SLOAD DUP8 PUSH1 0x7 ADD PUSH0 SWAP1 SLOAD SWAP1 PUSH2 0x100 EXP SWAP1 DIV PUSH20 0xFFFFFFFFFFFFFFFFFFFFFFFFFFFFFFFFFFFFFFFF AND DUP9 PUSH1 0x8 ADD DUP10 PUSH1 0x9 ADD SLOAD DUP11 PUSH1 0xA ADD PUSH0 SWAP1 SLOAD SWAP1 PUSH2 0x100 EXP SWAP1 DIV PUSH1 0xFF AND DUP10 DUP1 SLOAD PUSH2 0x263 SWAP1 PUSH2 0x136F JUMP JUMPDEST DUP1 PUSH1 0x1F ADD PUSH1 0x20 DUP1 SWAP2 DIV MUL PUSH1 0x20 ADD PUSH1 0x40 MLOAD SWAP1 DUP2 ADD PUSH1 0x40 MSTORE DUP1 SWAP3 SWAP2 SWAP1 DUP2 DUP2 MSTORE PUSH1 0x20 ADD DUP3 DUP1 SLOAD PUSH2 0x28F SWAP1 PUSH2 0x136F JUMP JUMPDEST DUP1 ISZERO PUSH2 0x2DA JUMPI DUP1 PUSH1 0x1F LT PUSH2 0x2B1 JUMPI PUSH2 0x100 DUP1 DUP4 SLOAD DIV MUL DUP4 MSTORE SWAP2 PUSH1 0x20 ADD SWAP2 PUSH2 0x2DA JUMP JUMPDEST DUP3 ADD SWAP2 SWAP1 PUSH0 MSTORE PUSH1 0x20 PUSH0 KECCAK256 SWAP1 JUMPDEST DUP2 SLOAD DUP2 MSTORE SWAP1 PUSH1 0x1 ADD SWAP1 PUSH1 0x20 ADD DUP1 DUP4 GT PUSH2 0x2BD JUMPI DUP3 SWAP1 SUB PUSH1 0x1F AND DUP3 ADD SWAP2 JUMPDEST POP POP POP POP POP SWAP10 POP DUP9 DUP1 SLOAD PUSH2 0x2ED SWAP1 PUSH2 0x136F JUMP JUMPDEST DUP1 PUSH1 0x1F ADD PUSH1 0x20 DUP1 SWAP2 DIV MUL PUSH1 0x20 ADD PUSH1 0x40 MLOAD SWAP1 DUP2 ADD PUSH1 0x40 MSTORE DUP1 SWAP3 SWAP2 SWAP1 DUP2 DUP2 MSTORE PUSH1 0x20 ADD DUP3 DUP1 SLOAD PUSH2 0x319 SWAP1 PUSH2 0x136F JUMP JUMPDEST DUP1 ISZERO PUSH2 0x364 JUMPI DUP1 PUSH1 0x1F LT PUSH2 0x33B JUMPI PUSH2 0x100 DUP1 DUP4 SLOAD DIV MUL DUP4 MSTORE SWAP2 PUSH1 0x20 ADD SWAP2 PUSH2 0x364 JUMP JUMPDEST DUP3 ADD SWAP2 SWAP1 PUSH0 MSTORE PUSH1 0x20 PUSH0 KECCAK256 SWAP1 JUMPDEST DUP2 SLOAD DUP2 MSTORE SWAP1 PUSH1 0x1 ADD SWAP1 PUSH1 0x20 ADD DUP1 DUP4 GT PUSH2 0x347 JUMPI DUP3 SWAP1 SUB PUSH1 0x1F AND DUP3 ADD SWAP2 JUMPDEST POP POP POP POP POP SWAP9 POP DUP7 DUP1 SLOAD PUSH2 0x377 SWAP1 PUSH2 0x136F JUMP JUMPDEST DUP1 PUSH1 0x1F ADD PUSH1 0x20 DUP1 SWAP2 DIV MUL PUSH1 0x20 ADD PUSH1 0x40 MLOAD SWAP1 DUP2 ADD PUSH1 0x40 MSTORE DUP1 SWAP3 SWAP2 SWAP1 DUP2 DUP2 MSTORE PUSH1 0x20 ADD DUP3 DUP1 SLOAD PUSH2 0x3A3 SWAP1 PUSH2 0x136F JUMP JUMPDEST DUP1 ISZERO PUSH2 0x3EE JUMPI DUP1 PUSH1 0x1F LT PUSH2 0x3C5 JUMPI PUSH2 0x100 DUP1 DUP4 SLOAD DIV MUL DUP4 MSTORE SWAP2 PUSH1 0x20 ADD SWAP2 PUSH2 0x3EE JUMP JUMPDEST DUP3 ADD SWAP2 SWAP1 PUSH0 MSTORE PUSH1 0x20 PUSH0 KECCAK256 SWAP1 JUMPDEST DUP2 SLOAD DUP2 MSTORE SWAP1 PUSH1 0x1 ADD SWAP1 PUSH1 0x20 ADD DUP1 DUP4 GT PUSH2 0x3D1 JUMPI DUP3 SWAP1 SUB PUSH1 0x1F AND DUP3 ADD SWAP2 JUMPDEST POP POP POP POP POP SWAP7 POP DUP3 DUP1 SLOAD DUP1 PUSH1 0x20 MUL PUSH1 0x20 ADD PUSH1 0x40 MLOAD SWAP1 DUP2 ADD PUSH1 0x40 MSTORE DUP1 SWAP3 SWAP2 SWAP1 DUP2 DUP2 MSTORE PUSH1 0x20 ADD DUP3 DUP1 SLOAD DUP1 ISZERO PUSH2 0x473 JUMPI PUSH1 0x20 MUL DUP3 ADD SWAP2 SWAP1 PUSH0 MSTORE PUSH1 0x20 PUSH0 KECCAK256 SWAP1 JUMPDEST DUP2 PUSH0 SWAP1 SLOAD SWAP1 PUSH2 0x100 EXP SWAP1 DIV PUSH20 0xFFFFFFFFFFFFFFFFFFFFFFFFFFFFFFFFFFFFFFFF AND PUSH20 0xFFFFFFFFFFFFFFFFFFFFFFFFFFFFFFFFFFFFFFFF AND DUP2 MSTORE PUSH1 0x20 ADD SWAP1 PUSH1 0x1 ADD SWAP1 DUP1 DUP4 GT PUSH2 0x42A JUMPI JUMPDEST POP POP POP POP POP SWAP3 POP SWAP12 POP SWAP12 POP SWAP12 POP SWAP12 POP SWAP12 POP SWAP12 POP SWAP12 POP SWAP12 POP SWAP12 POP SWAP12 POP SWAP12 POP POP SWAP2 SWAP4 SWAP6 SWAP8 SWAP10 SWAP12 SWAP1 SWAP3 SWAP5 SWAP7 SWAP9 SWAP11 POP JUMP JUMPDEST DUP1 PUSH0 PUSH20 0xFFFFFFFFFFFFFFFFFFFFFFFFFFFFFFFFFFFFFFFF AND PUSH0 DUP1 DUP4 DUP2 MSTORE PUSH1 0x20 ADD SWAP1 DUP2 MSTORE PUSH1 0x20 ADD PUSH0 KECCAK256 PUSH1 0x7 ADD PUSH0 SWAP1 SLOAD SWAP1 PUSH2 0x100 EXP SWAP1 DIV PUSH20 0xFFFFFFFFFFFFFFFFFFFFFFFFFFFFFFFFFFFFFFFF AND PUSH20 0xFFFFFFFFFFFFFFFFFFFFFFFFFFFFFFFFFFFFFFFF AND SUB PUSH2 0x541 JUMPI PUSH1 0x40 MLOAD PUSH32 0x8C379A000000000000000000000000000000000000000000000000000000000 DUP2 MSTORE PUSH1 0x4 ADD PUSH2 0x538 SWAP1 PUSH2 0x13E9 JUMP JUMPDEST PUSH1 0x40 MLOAD DUP1 SWAP2 SUB SWAP1 REVERT JUMPDEST DUP2 PUSH0 DUP1 DUP3 DUP2 MSTORE PUSH1 0x20 ADD SWAP1 DUP2 MSTORE PUSH1 0x20 ADD PUSH0 KECCAK256 PUSH1 0xA ADD PUSH0 SWAP1 SLOAD SWAP1 PUSH2 0x100 EXP SWAP1 DIV PUSH1 0xFF AND ISZERO PUSH2 0x5A2 JUMPI PUSH1 0x40 MLOAD PUSH32 0x8C379A000000000000000000000000000000000000000000000000000000000 DUP2 MSTORE PUSH1 0x4 ADD PUSH2 0x599 SWAP1 PUSH2 0x1451 JUMP JUMPDEST PUSH1 0x40 MLOAD DUP1 SWAP2 SUB SWAP1 REVERT JUMPDEST PUSH0 DUP1 PUSH0 DUP6 DUP2 MSTORE PUSH1 0x20 ADD SWAP1 DUP2 MSTORE PUSH1 0x20 ADD PUSH0 KECCAK256 SWAP1 POP PUSH0 PUSH1 0x64 PUSH1 0x8 DUP4 PUSH1 0x5 ADD SLOAD PUSH2 0x5C9 SWAP2 SWAP1 PUSH2 0x149C JUMP JUMPDEST PUSH2 0x5D3 SWAP2 SWAP1 PUSH2 0x150A JUMP JUMPDEST SWAP1 POP PUSH0 DUP2 DUP4 PUSH1 0x5 ADD SLOAD PUSH2 0x5E6 SWAP2 SWAP1 PUSH2 0x153A JUMP JUMPDEST SWAP1 POP DUP3 PUSH1 0x5 ADD SLOAD CALLVALUE LT ISZERO PUSH2 0x62F JUMPI PUSH1 0x40 MLOAD PUSH32 0x8C379A000000000000000000000000000000000000000000000000000000000 DUP2 MSTORE PUSH1 0x4 ADD PUSH2 0x626 SWAP1 PUSH2 0x15DD JUMP JUMPDEST PUSH1 0x40 MLOAD DUP1 SWAP2 SUB SWAP1 REVERT JUMPDEST DUP3 PUSH1 0x7 ADD PUSH0 SWAP1 SLOAD SWAP1 PUSH2 0x100 EXP SWAP1 DIV PUSH20 0xFFFFFFFFFFFFFFFFFFFFFFFFFFFFFFFFFFFFFFFF AND PUSH20 0xFFFFFFFFFFFFFFFFFFFFFFFFFFFFFFFFFFFFFFFF AND PUSH2 0x8FC DUP3 SWAP1 DUP2 ISZERO MUL SWAP1 PUSH1 0x40 MLOAD PUSH0 PUSH1 0x40 MLOAD DUP1 DUP4 SUB DUP2 DUP6 DUP9 DUP9 CALL SWAP4 POP POP POP POP ISZERO DUP1 ISZERO PUSH2 0x695 JUMPI RETURNDATASIZE PUSH0 DUP1 RETURNDATACOPY RETURNDATASIZE PUSH0 REVERT JUMPDEST POP DUP3 PUSH1 0x8 ADD CALLER SWAP1 DUP1 PUSH1 0x1 DUP2 SLOAD ADD DUP1 DUP3 SSTORE DUP1 SWAP2 POP POP PUSH1 0x1 SWAP1 SUB SWAP1 PUSH0 MSTORE PUSH1 0x20 PUSH0 KECCAK256 ADD PUSH0 SWAP1 SWAP2 SWAP1 SWAP2 SWAP1 SWAP2 PUSH2 0x100 EXP DUP2 SLOAD DUP2 PUSH20 0xFFFFFFFFFFFFFFFFFFFFFFFFFFFFFFFFFFFFFFFF MUL NOT AND SWAP1 DUP4 PUSH20 0xFFFFFFFFFFFFFFFFFFFFFFFFFFFFFFFFFFFFFFFF AND MUL OR SWAP1 SSTORE POP PUSH1 0x1 NUMBER PUSH2 0x705 SWAP2 SWAP1 PUSH2 0x153A JUMP JUMPDEST BLOCKHASH DUP4 PUSH1 0x9 ADD DUP2 SWAP1 SSTORE POP PUSH1 0x40 MLOAD DUP1 PUSH1 0xC0 ADD PUSH1 0x40 MSTORE DUP1 DUP8 DUP2 MSTORE PUSH1 0x20 ADD CALLER PUSH20 0xFFFFFFFFFFFFFFFFFFFFFFFFFFFFFFFFFFFFFFFF AND DUP2 MSTORE PUSH1 0x20 ADD DUP3 DUP2 MSTORE PUSH1 0x20 ADD DUP4 DUP2 MSTORE PUSH1 0x20 ADD DUP5 PUSH1 0x9 ADD SLOAD DUP2 MSTORE PUSH1 0x20 ADD TIMESTAMP DUP2 MSTORE POP PUSH1 0x1 PUSH0 DUP6 PUSH1 0x9 ADD SLOAD DUP2 MSTORE PUSH1 0x20 ADD SWAP1 DUP2 MSTORE PUSH1 0x20 ADD PUSH0 KECCAK256 PUSH0 DUP3 ADD MLOAD DUP2 PUSH0 ADD SSTORE PUSH1 0x20 DUP3 ADD MLOAD DUP2 PUSH1 0x1 ADD PUSH0 PUSH2 0x100 EXP DUP2 SLOAD DUP2 PUSH20 0xFFFFFFFFFFFFFFFFFFFFFFFFFFFFFFFFFFFFFFFF MUL NOT AND SWAP1 DUP4 PUSH20 0xFFFFFFFFFFFFFFFFFFFFFFFFFFFFFFFFFFFFFFFF AND MUL OR SWAP1 SSTORE POP PUSH1 0x40 DUP3 ADD MLOAD DUP2 PUSH1 0x2 ADD SSTORE PUSH1 0x60 DUP3 ADD MLOAD DUP2 PUSH1 0x3 ADD SSTORE PUSH1 0x80 DUP3 ADD MLOAD DUP2 PUSH1 0x4 ADD SSTORE PUSH1 0xA0 DUP3 ADD MLOAD DUP2 PUSH1 0x5 ADD SSTORE SWAP1 POP POP PUSH32 0x96836526637DF41A0181017D35ECA90AEA5D39F47FC680CC0811179DFA01996E DUP7 CALLER DUP4 DUP6 DUP8 PUSH1 0x9 ADD SLOAD PUSH1 0x40 MLOAD PUSH2 0x81E SWAP6 SWAP5 SWAP4 SWAP3 SWAP2 SWAP1 PUSH2 0x15FB JUMP JUMPDEST PUSH1 0x40 MLOAD DUP1 SWAP2 SUB SWAP1 LOG1 POP POP POP POP POP POP JUMP JUMPDEST PUSH0 DUP1 PUSH0 DUP1 PUSH0 DUP1 PUSH1 0x1 PUSH0 DUP9 DUP2 MSTORE PUSH1 0x20 ADD SWAP1 DUP2 MSTORE PUSH1 0x20 ADD PUSH0 KECCAK256 SWAP1 POP DUP1 PUSH0 ADD SLOAD DUP2 PUSH1 0x1 ADD PUSH0 SWAP1 SLOAD SWAP1 PUSH2 0x100 EXP SWAP1 DIV PUSH20 0xFFFFFFFFFFFFFFFFFFFFFFFFFFFFFFFFFFFFFFFF AND DUP3 PUSH1 0x2 ADD SLOAD DUP4 PUSH1 0x3 ADD SLOAD DUP5 PUSH1 0x5 ADD SLOAD SWAP6 POP SWAP6 POP SWAP6 POP SWAP6 POP SWAP6 POP POP SWAP2 SWAP4 SWAP6 SWAP1 SWAP3 SWAP5 POP JUMP JUMPDEST PUSH1 0x2 SLOAD DUP2 JUMP JUMPDEST PUSH1 0x8 DUP2 JUMP JUMPDEST DUP1 PUSH0 PUSH20 0xFFFFFFFFFFFFFFFFFFFFFFFFFFFFFFFFFFFFFFFF AND PUSH0 DUP1 DUP4 DUP2 MSTORE PUSH1 0x20 ADD SWAP1 DUP2 MSTORE PUSH1 0x20 ADD PUSH0 KECCAK256 PUSH1 0x7 ADD PUSH0 SWAP1 SLOAD SWAP1 PUSH2 0x100 EXP SWAP1 DIV PUSH20 0xFFFFFFFFFFFFFFFFFFFFFFFFFFFFFFFFFFFFFFFF AND PUSH20 0xFFFFFFFFFFFFFFFFFFFFFFFFFFFFFFFFFFFFFFFF AND SUB PUSH2 0x93E JUMPI PUSH1 0x40 MLOAD PUSH32 0x8C379A000000000000000000000000000000000000000000000000000000000 DUP2 MSTORE PUSH1 0x4 ADD PUSH2 0x935 SWAP1 PUSH2 0x13E9 JUMP JUMPDEST PUSH1 0x40 MLOAD DUP1 SWAP2 SUB SWAP1 REVERT JUMPDEST DUP2 PUSH0 DUP1 DUP3 DUP2 MSTORE PUSH1 0x20 ADD SWAP1 DUP2 MSTORE PUSH1 0x20 ADD PUSH0 KECCAK256 PUSH1 0xA ADD PUSH0 SWAP1 SLOAD SWAP1 PUSH2 0x100 EXP SWAP1 DIV PUSH1 0xFF AND ISZERO PUSH2 0x99F JUMPI PUSH1 0x40 MLOAD PUSH32 0x8C379A000000000000000000000000000000000000000000000000000000000 DUP2 MSTORE PUSH1 0x4 ADD PUSH2 0x996 SWAP1 PUSH2 0x1451 JUMP JUMPDEST PUSH1 0x40 MLOAD DUP1 SWAP2 SUB SWAP1 REVERT JUMPDEST DUP3 CALLER PUSH20 0xFFFFFFFFFFFFFFFFFFFFFFFFFFFFFFFFFFFFFFFF AND PUSH0 DUP1 DUP4 DUP2 MSTORE PUSH1 0x20 ADD SWAP1 DUP2 MSTORE PUSH1 0x20 ADD PUSH0 KECCAK256 PUSH1 0x7 ADD PUSH0 SWAP1 SLOAD SWAP1 PUSH2 0x100 EXP SWAP1 DIV PUSH20 0xFFFFFFFFFFFFFFFFFFFFFFFFFFFFFFFFFFFFFFFF AND PUSH20 0xFFFFFFFFFFFFFFFFFFFFFFFFFFFFFFFFFFFFFFFF AND EQ PUSH2 0xA40 JUMPI PUSH1 0x40 MLOAD PUSH32 0x8C379A000000000000000000000000000000000000000000000000000000000 DUP2 MSTORE PUSH1 0x4 ADD PUSH2 0xA37 SWAP1 PUSH2 0x16BC JUMP JUMPDEST PUSH1 0x40 MLOAD DUP1 SWAP2 SUB SWAP1 REVERT JUMPDEST PUSH0 DUP1 PUSH0 DUP7 DUP2 MSTORE PUSH1 0x20 ADD SWAP1 DUP2 MSTORE PUSH1 0x20 ADD PUSH0 KECCAK256 SWAP1 POP PUSH1 0x1 DUP2 PUSH1 0xA ADD PUSH0 PUSH2 0x100 EXP DUP2 SLOAD DUP2 PUSH1 0xFF MUL NOT AND SWAP1 DUP4 ISZERO ISZERO MUL OR SWAP1 SSTORE POP PUSH32 0xB27347CA9471103DED6B8B466BF4643DD4869BC7B0137003EA8D2FD1A6E7758D DUP6 PUSH1 0x40 MLOAD PUSH2 0xA9E SWAP2 SWAP1 PUSH2 0x1108 JUMP JUMPDEST PUSH1 0x40 MLOAD DUP1 SWAP2 SUB SWAP1 LOG1 POP POP POP POP POP JUMP JUMPDEST PUSH0 PUSH1 0x2 PUSH0 DUP2 SLOAD DUP1 SWAP3 SWAP2 SWAP1 PUSH2 0xAC0 SWAP1 PUSH2 0x16DA JUMP JUMPDEST SWAP2 SWAP1 POP SSTORE POP PUSH1 0x40 MLOAD DUP1 PUSH2 0x160 ADD PUSH1 0x40 MSTORE DUP1 PUSH1 0x2 SLOAD DUP2 MSTORE PUSH1 0x20 ADD DUP6 DUP2 MSTORE PUSH1 0x20 ADD DUP5 DUP2 MSTORE PUSH1 0x20 ADD DUP4 ISZERO ISZERO DUP2 MSTORE PUSH1 0x20 ADD DUP7 DUP2 MSTORE PUSH1 0x20 ADD DUP8 DUP2 MSTORE PUSH1 0x20 ADD PUSH0 DUP2 MSTORE PUSH1 0x20 ADD CALLER PUSH20 0xFFFFFFFFFFFFFFFFFFFFFFFFFFFFFFFFFFFFFFFF AND DUP2 MSTORE PUSH1 0x20 ADD PUSH0 PUSH8 0xFFFFFFFFFFFFFFFF DUP2 GT ISZERO PUSH2 0xB35 JUMPI PUSH2 0xB34 PUSH2 0x1129 JUMP JUMPDEST JUMPDEST PUSH1 0x40 MLOAD SWAP1 DUP1 DUP3 MSTORE DUP1 PUSH1 0x20 MUL PUSH1 0x20 ADD DUP3 ADD PUSH1 0x40 MSTORE DUP1 ISZERO PUSH2 0xB63 JUMPI DUP2 PUSH1 0x20 ADD PUSH1 0x20 DUP3 MUL DUP1 CALLDATASIZE DUP4 CALLDATACOPY DUP1 DUP3 ADD SWAP2 POP POP SWAP1 POP JUMPDEST POP DUP2 MSTORE PUSH1 0x20 ADD PUSH0 DUP1 SHL DUP2 MSTORE PUSH1 0x20 ADD PUSH0 ISZERO ISZERO DUP2 MSTORE POP PUSH0 DUP1 PUSH1 0x2 SLOAD DUP2 MSTORE PUSH1 0x20 ADD SWAP1 DUP2 MSTORE PUSH1 0x20 ADD PUSH0 KECCAK256 PUSH0 DUP3 ADD MLOAD DUP2 PUSH0 ADD SSTORE PUSH1 0x20 DUP3 ADD MLOAD DUP2 PUSH1 0x1 ADD SWAP1 DUP2 PUSH2 0xBA6 SWAP2 SWAP1 PUSH2 0x18BE JUMP JUMPDEST POP PUSH1 0x40 DUP3 ADD MLOAD DUP2 PUSH1 0x2 ADD SWAP1 DUP2 PUSH2 0xBBC SWAP2 SWAP1 PUSH2 0x18BE JUMP JUMPDEST POP PUSH1 0x60 DUP3 ADD MLOAD DUP2 PUSH1 0x3 ADD PUSH0 PUSH2 0x100 EXP DUP2 SLOAD DUP2 PUSH1 0xFF MUL NOT AND SWAP1 DUP4 ISZERO ISZERO MUL OR SWAP1 SSTORE POP PUSH1 0x80 DUP3 ADD MLOAD DUP2 PUSH1 0x4 ADD SWAP1 DUP2 PUSH2 0xBF1 SWAP2 SWAP1 PUSH2 0x18BE JUMP JUMPDEST POP PUSH1 0xA0 DUP3 ADD MLOAD DUP2 PUSH1 0x5 ADD SSTORE PUSH1 0xC0 DUP3 ADD MLOAD DUP2 PUSH1 0x6 ADD SSTORE PUSH1 0xE0 DUP3 ADD MLOAD DUP2 PUSH1 0x7 ADD PUSH0 PUSH2 0x100 EXP DUP2 SLOAD DUP2 PUSH20 0xFFFFFFFFFFFFFFFFFFFFFFFFFFFFFFFFFFFFFFFF MUL NOT AND SWAP1 DUP4 PUSH20 0xFFFFFFFFFFFFFFFFFFFFFFFFFFFFFFFFFFFFFFFF AND MUL OR SWAP1 SSTORE POP PUSH2 0x100 DUP3 ADD MLOAD DUP2 PUSH1 0x8 ADD SWAP1 DUP1 MLOAD SWAP1 PUSH1 0x20 ADD SWAP1 PUSH2 0xC69 SWAP3 SWAP2 SWAP1 PUSH2 0xCE5 JUMP JUMPDEST POP PUSH2 0x120 DUP3 ADD MLOAD DUP2 PUSH1 0x9 ADD SSTORE PUSH2 0x140 DUP3 ADD MLOAD DUP2 PUSH1 0xA ADD PUSH0 PUSH2 0x100 EXP DUP2 SLOAD DUP2 PUSH1 0xFF MUL NOT AND SWAP1 DUP4 ISZERO ISZERO MUL OR SWAP1 SSTORE POP SWAP1 POP POP PUSH32 0xD738AF278540540083F5D8180DD9A02DC202474BCB20EF35F68B6AB5AEAAF44 PUSH1 0x2 SLOAD CALLER DUP9 DUP9 PUSH1 0x40 MLOAD PUSH2 0xCCF SWAP5 SWAP4 SWAP3 SWAP2 SWAP1 PUSH2 0x198D JUMP JUMPDEST PUSH1 0x40 MLOAD DUP1 SWAP2 SUB SWAP1 LOG1 PUSH1 0x2 SLOAD SWAP1 POP SWAP6 SWAP5 POP POP POP POP POP JUMP JUMPDEST DUP3 DUP1 SLOAD DUP3 DUP3 SSTORE SWAP1 PUSH0 MSTORE PUSH1 0x20 PUSH0 KECCAK256 SWAP1 DUP2 ADD SWAP3 DUP3 ISZERO PUSH2 0xD5B JUMPI SWAP2 PUSH1 0x20 MUL DUP3 ADD JUMPDEST DUP3 DUP2 GT ISZERO PUSH2 0xD5A JUMPI DUP3 MLOAD DUP3 PUSH0 PUSH2 0x100 EXP DUP2 SLOAD DUP2 PUSH20 0xFFFFFFFFFFFFFFFFFFFFFFFFFFFFFFFFFFFFFFFF MUL NOT AND SWAP1 DUP4 PUSH20 0xFFFFFFFFFFFFFFFFFFFFFFFFFFFFFFFFFFFFFFFF AND MUL OR SWAP1 SSTORE POP SWAP2 PUSH1 0x20 ADD SWAP2 SWAP1 PUSH1 0x1 ADD SWAP1 PUSH2 0xD03 JUMP JUMPDEST JUMPDEST POP SWAP1 POP PUSH2 0xD68 SWAP2 SWAP1 PUSH2 0xD6C JUMP JUMPDEST POP SWAP1 JUMP JUMPDEST JUMPDEST DUP1 DUP3 GT ISZERO PUSH2 0xD83 JUMPI PUSH0 DUP2 PUSH0 SWAP1 SSTORE POP PUSH1 0x1 ADD PUSH2 0xD6D JUMP JUMPDEST POP SWAP1 JUMP JUMPDEST PUSH0 PUSH1 0x40 MLOAD SWAP1 POP SWAP1 JUMP JUMPDEST PUSH0 DUP1 REVERT JUMPDEST PUSH0 DUP1 REVERT JUMPDEST PUSH0 DUP2 SWAP1 POP SWAP2 SWAP1 POP JUMP JUMPDEST PUSH2 0xDAA DUP2 PUSH2 0xD98 JUMP JUMPDEST DUP2 EQ PUSH2 0xDB4 JUMPI PUSH0 DUP1 REVERT JUMPDEST POP JUMP JUMPDEST PUSH0 DUP2 CALLDATALOAD SWAP1 POP PUSH2 0xDC5 DUP2 PUSH2 0xDA1 JUMP JUMPDEST SWAP3 SWAP2 POP POP JUMP JUMPDEST PUSH0 PUSH1 0x20 DUP3 DUP5 SUB SLT ISZERO PUSH2 0xDE0 JUMPI PUSH2 0xDDF PUSH2 0xD90 JUMP JUMPDEST JUMPDEST PUSH0 PUSH2 0xDED DUP5 DUP3 DUP6 ADD PUSH2 0xDB7 JUMP JUMPDEST SWAP2 POP POP SWAP3 SWAP2 POP POP JUMP JUMPDEST PUSH2 0xDFF DUP2 PUSH2 0xD98 JUMP JUMPDEST DUP3 MSTORE POP POP JUMP JUMPDEST PUSH0 DUP2 MLOAD SWAP1 POP SWAP2 SWAP1 POP JUMP JUMPDEST PUSH0 DUP3 DUP3 MSTORE PUSH1 0x20 DUP3 ADD SWAP1 POP SWAP3 SWAP2 POP POP JUMP JUMPDEST DUP3 DUP2 DUP4 MCOPY PUSH0 DUP4 DUP4 ADD MSTORE POP POP POP JUMP JUMPDEST PUSH0 PUSH1 0x1F NOT PUSH1 0x1F DUP4 ADD AND SWAP1 POP SWAP2 SWAP1 POP JUMP JUMPDEST PUSH0 PUSH2 0xE47 DUP3 PUSH2 0xE05 JUMP JUMPDEST PUSH2 0xE51 DUP2 DUP6 PUSH2 0xE0F JUMP JUMPDEST SWAP4 POP PUSH2 0xE61 DUP2 DUP6 PUSH1 0x20 DUP7 ADD PUSH2 0xE1F JUMP JUMPDEST PUSH2 0xE6A DUP2 PUSH2 0xE2D JUMP JUMPDEST DUP5 ADD SWAP2 POP POP SWAP3 SWAP2 POP POP JUMP JUMPDEST PUSH0 DUP2 ISZERO ISZERO SWAP1 POP SWAP2 SWAP1 POP JUMP JUMPDEST PUSH2 0xE89 DUP2 PUSH2 0xE75 JUMP JUMPDEST DUP3 MSTORE POP POP JUMP JUMPDEST PUSH0 PUSH20 0xFFFFFFFFFFFFFFFFFFFFFFFFFFFFFFFFFFFFFFFF DUP3 AND SWAP1 POP SWAP2 SWAP1 POP JUMP JUMPDEST PUSH0 PUSH2 0xEB8 DUP3 PUSH2 0xE8F JUMP JUMPDEST SWAP1 POP SWAP2 SWAP1 POP JUMP JUMPDEST PUSH2 0xEC8 DUP2 PUSH2 0xEAE JUMP JUMPDEST DUP3 MSTORE POP POP JUMP JUMPDEST PUSH0 DUP2 MLOAD SWAP1 POP SWAP2 SWAP1 POP JUMP JUMPDEST PUSH0 DUP3 DUP3 MSTORE PUSH1 0x20 DUP3 ADD SWAP1 POP SWAP3 SWAP2 POP POP JUMP JUMPDEST PUSH0 DUP2 SWAP1 POP PUSH1 0x20 DUP3 ADD SWAP1 POP SWAP2 SWAP1 POP JUMP JUMPDEST PUSH2 0xF00 DUP2 PUSH2 0xEAE JUMP JUMPDEST DUP3 MSTORE POP POP JUMP JUMPDEST PUSH0 PUSH2 0xF11 DUP4 DUP4 PUSH2 0xEF7 JUMP JUMPDEST PUSH1 0x20 DUP4 ADD SWAP1 POP SWAP3 SWAP2 POP POP JUMP JUMPDEST PUSH0 PUSH1 0x20 DUP3 ADD SWAP1 POP SWAP2 SWAP1 POP JUMP JUMPDEST PUSH0 PUSH2 0xF33 DUP3 PUSH2 0xECE JUMP JUMPDEST PUSH2 0xF3D DUP2 DUP6 PUSH2 0xED8 JUMP JUMPDEST SWAP4 POP PUSH2 0xF48 DUP4 PUSH2 0xEE8 JUMP JUMPDEST DUP1 PUSH0 JUMPDEST DUP4 DUP2 LT ISZERO PUSH2 0xF78 JUMPI DUP2 MLOAD PUSH2 0xF5F DUP9 DUP3 PUSH2 0xF06 JUMP JUMPDEST SWAP8 POP PUSH2 0xF6A DUP4 PUSH2 0xF1D JUMP JUMPDEST SWAP3 POP POP PUSH1 0x1 DUP2 ADD SWAP1 POP PUSH2 0xF4B JUMP JUMPDEST POP DUP6 SWAP4 POP POP POP POP SWAP3 SWAP2 POP POP JUMP JUMPDEST PUSH0 DUP2 SWAP1 POP SWAP2 SWAP1 POP JUMP JUMPDEST PUSH2 0xF97 DUP2 PUSH2 0xF85 JUMP JUMPDEST DUP3 MSTORE POP POP JUMP JUMPDEST PUSH0 PUSH2 0x160 DUP3 ADD SWAP1 POP PUSH2 0xFB1 PUSH0 DUP4 ADD DUP15 PUSH2 0xDF6 JUMP JUMPDEST DUP2 DUP2 SUB PUSH1 0x20 DUP4 ADD MSTORE PUSH2 0xFC3 DUP2 DUP14 PUSH2 0xE3D JUMP JUMPDEST SWAP1 POP DUP2 DUP2 SUB PUSH1 0x40 DUP4 ADD MSTORE PUSH2 0xFD7 DUP2 DUP13 PUSH2 0xE3D JUMP JUMPDEST SWAP1 POP PUSH2 0xFE6 PUSH1 0x60 DUP4 ADD DUP12 PUSH2 0xE80 JUMP JUMPDEST DUP2 DUP2 SUB PUSH1 0x80 DUP4 ADD MSTORE PUSH2 0xFF8 DUP2 DUP11 PUSH2 0xE3D JUMP JUMPDEST SWAP1 POP PUSH2 0x1007 PUSH1 0xA0 DUP4 ADD DUP10 PUSH2 0xDF6 JUMP JUMPDEST PUSH2 0x1014 PUSH1 0xC0 DUP4 ADD DUP9 PUSH2 0xDF6 JUMP JUMPDEST PUSH2 0x1021 PUSH1 0xE0 DUP4 ADD DUP8 PUSH2 0xEBF JUMP JUMPDEST DUP2 DUP2 SUB PUSH2 0x100 DUP4 ADD MSTORE PUSH2 0x1034 DUP2 DUP7 PUSH2 0xF29 JUMP JUMPDEST SWAP1 POP PUSH2 0x1044 PUSH2 0x120 DUP4 ADD DUP6 PUSH2 0xF8E JUMP JUMPDEST PUSH2 0x1052 PUSH2 0x140 DUP4 ADD DUP5 PUSH2 0xE80 JUMP JUMPDEST SWAP13 SWAP12 POP POP POP POP POP POP POP POP POP POP POP POP JUMP JUMPDEST PUSH2 0x106B DUP2 PUSH2 0xF85 JUMP JUMPDEST DUP2 EQ PUSH2 0x1075 JUMPI PUSH0 DUP1 REVERT JUMPDEST POP JUMP JUMPDEST PUSH0 DUP2 CALLDATALOAD SWAP1 POP PUSH2 0x1086 DUP2 PUSH2 0x1062 JUMP JUMPDEST SWAP3 SWAP2 POP POP JUMP JUMPDEST PUSH0 PUSH1 0x20 DUP3 DUP5 SUB SLT ISZERO PUSH2 0x10A1 JUMPI PUSH2 0x10A0 PUSH2 0xD90 JUMP JUMPDEST JUMPDEST PUSH0 PUSH2 0x10AE DUP5 DUP3 DUP6 ADD PUSH2 0x1078 JUMP JUMPDEST SWAP2 POP POP SWAP3 SWAP2 POP POP JUMP JUMPDEST PUSH0 PUSH1 0xA0 DUP3 ADD SWAP1 POP PUSH2 0x10CA PUSH0 DUP4 ADD DUP9 PUSH2 0xDF6 JUMP JUMPDEST PUSH2 0x10D7 PUSH1 0x20 DUP4 ADD DUP8 PUSH2 0xEBF JUMP JUMPDEST PUSH2 0x10E4 PUSH1 0x40 DUP4 ADD DUP7 PUSH2 0xDF6 JUMP JUMPDEST PUSH2 0x10F1 PUSH1 0x60 DUP4 ADD DUP6 PUSH2 0xDF6 JUMP JUMPDEST PUSH2 0x10FE PUSH1 0x80 DUP4 ADD DUP5 PUSH2 0xDF6 JUMP JUMPDEST SWAP7 SWAP6 POP POP POP POP POP POP JUMP JUMPDEST PUSH0 PUSH1 0x20 DUP3 ADD SWAP1 POP PUSH2 0x111B PUSH0 DUP4 ADD DUP5 PUSH2 0xDF6 JUMP JUMPDEST SWAP3 SWAP2 POP POP JUMP JUMPDEST PUSH0 DUP1 REVERT JUMPDEST PUSH0 DUP1 REVERT JUMPDEST PUSH32 0x4E487B7100000000000000000000000000000000000000000000000000000000 PUSH0 MSTORE PUSH1 0x41 PUSH1 0x4 MSTORE PUSH1 0x24 PUSH0 REVERT JUMPDEST PUSH2 0x115F DUP3 PUSH2 0xE2D JUMP JUMPDEST DUP2 ADD DUP2 DUP2 LT PUSH8 0xFFFFFFFFFFFFFFFF DUP3 GT OR ISZERO PUSH2 0x117E JUMPI PUSH2 0x117D PUSH2 0x1129 JUMP JUMPDEST JUMPDEST DUP1 PUSH1 0x40 MSTORE POP POP POP JUMP JUMPDEST PUSH0 PUSH2 0x1190 PUSH2 0xD87 JUMP JUMPDEST SWAP1 POP PUSH2 0x119C DUP3 DUP3 PUSH2 0x1156 JUMP JUMPDEST SWAP2 SWAP1 POP JUMP JUMPDEST PUSH0 PUSH8 0xFFFFFFFFFFFFFFFF DUP3 GT ISZERO PUSH2 0x11BB JUMPI PUSH2 0x11BA PUSH2 0x1129 JUMP JUMPDEST JUMPDEST PUSH2 0x11C4 DUP3 PUSH2 0xE2D JUMP JUMPDEST SWAP1 POP PUSH1 0x20 DUP2 ADD SWAP1 POP SWAP2 SWAP1 POP JUMP JUMPDEST DUP3 DUP2 DUP4 CALLDATACOPY PUSH0 DUP4 DUP4 ADD MSTORE POP POP POP JUMP JUMPDEST PUSH0 PUSH2 0x11F1 PUSH2 0x11EC DUP5 PUSH2 0x11A1 JUMP JUMPDEST PUSH2 0x1187 JUMP JUMPDEST SWAP1 POP DUP3 DUP2 MSTORE PUSH1 0x20 DUP2 ADD DUP5 DUP5 DUP5 ADD GT ISZERO PUSH2 0x120D JUMPI PUSH2 0x120C PUSH2 0x1125 JUMP JUMPDEST JUMPDEST PUSH2 0x1218 DUP5 DUP3 DUP6 PUSH2 0x11D1 JUMP JUMPDEST POP SWAP4 SWAP3 POP POP POP JUMP JUMPDEST PUSH0 DUP3 PUSH1 0x1F DUP4 ADD SLT PUSH2 0x1234 JUMPI PUSH2 0x1233 PUSH2 0x1121 JUMP JUMPDEST JUMPDEST DUP2 CALLDATALOAD PUSH2 0x1244 DUP5 DUP3 PUSH1 0x20 DUP7 ADD PUSH2 0x11DF JUMP JUMPDEST SWAP2 POP POP SWAP3 SWAP2 POP POP JUMP JUMPDEST PUSH2 0x1256 DUP2 PUSH2 0xE75 JUMP JUMPDEST DUP2 EQ PUSH2 0x1260 JUMPI PUSH0 DUP1 REVERT JUMPDEST POP JUMP JUMPDEST PUSH0 DUP2 CALLDATALOAD SWAP1 POP PUSH2 0x1271 DUP2 PUSH2 0x124D JUMP JUMPDEST SWAP3 SWAP2 POP POP JUMP JUMPDEST PUSH0 DUP1 PUSH0 DUP1 PUSH0 PUSH1 0xA0 DUP7 DUP9 SUB SLT ISZERO PUSH2 0x1290 JUMPI PUSH2 0x128F PUSH2 0xD90 JUMP JUMPDEST JUMPDEST PUSH0 PUSH2 0x129D DUP9 DUP3 DUP10 ADD PUSH2 0xDB7 JUMP JUMPDEST SWAP6 POP POP PUSH1 0x20 DUP7 ADD CALLDATALOAD PUSH8 0xFFFFFFFFFFFFFFFF DUP2 GT ISZERO PUSH2 0x12BE JUMPI PUSH2 0x12BD PUSH2 0xD94 JUMP JUMPDEST JUMPDEST PUSH2 0x12CA DUP9 DUP3 DUP10 ADD PUSH2 0x1220 JUMP JUMPDEST SWAP5 POP POP PUSH1 0x40 DUP7 ADD CALLDATALOAD PUSH8 0xFFFFFFFFFFFFFFFF DUP2 GT ISZERO PUSH2 0x12EB JUMPI PUSH2 0x12EA PUSH2 0xD94 JUMP JUMPDEST JUMPDEST PUSH2 0x12F7 DUP9 DUP3 DUP10 ADD PUSH2 0x1220 JUMP JUMPDEST SWAP4 POP POP PUSH1 0x60 DUP7 ADD CALLDATALOAD PUSH8 0xFFFFFFFFFFFFFFFF DUP2 GT ISZERO PUSH2 0x1318 JUMPI PUSH2 0x1317 PUSH2 0xD94 JUMP JUMPDEST JUMPDEST PUSH2 0x1324 DUP9 DUP3 DUP10 ADD PUSH2 0x1220 JUMP JUMPDEST SWAP3 POP POP PUSH1 0x80 PUSH2 0x1335 DUP9 DUP3 DUP10 ADD PUSH2 0x1263 JUMP JUMPDEST SWAP2 POP POP SWAP3 SWAP6 POP SWAP3 SWAP6 SWAP1 SWAP4 POP JUMP JUMPDEST PUSH32 0x4E487B7100000000000000000000000000000000000000000000000000000000 PUSH0 MSTORE PUSH1 0x22 PUSH1 0x4 MSTORE PUSH1 0x24 PUSH0 REVERT JUMPDEST PUSH0 PUSH1 0x2 DUP3 DIV SWAP1 POP PUSH1 0x1 DUP3 AND DUP1 PUSH2 0x1386 JUMPI PUSH1 0x7F DUP3 AND SWAP2 POP JUMPDEST PUSH1 0x20 DUP3 LT DUP2 SUB PUSH2 0x1399 JUMPI PUSH2 0x1398 PUSH2 0x1342 JUMP JUMPDEST JUMPDEST POP SWAP2 SWAP1 POP JUMP JUMPDEST PUSH32 0x5472697020646F6573206E6F7420657869737400000000000000000000000000 PUSH0 DUP3 ADD MSTORE POP JUMP JUMPDEST PUSH0 PUSH2 0x13D3 PUSH1 0x13 DUP4 PUSH2 0xE0F JUMP JUMPDEST SWAP2 POP PUSH2 0x13DE DUP3 PUSH2 0x139F JUMP JUMPDEST PUSH1 0x20 DUP3 ADD SWAP1 POP SWAP2 SWAP1 POP JUMP JUMPDEST PUSH0 PUSH1 0x20 DUP3 ADD SWAP1 POP DUP2 DUP2 SUB PUSH0 DUP4 ADD MSTORE PUSH2 0x1400 DUP2 PUSH2 0x13C7 JUMP JUMPDEST SWAP1 POP SWAP2 SWAP1 POP JUMP JUMPDEST PUSH32 0x5472697020616C726561647920636F6D706C6574656400000000000000000000 PUSH0 DUP3 ADD MSTORE POP JUMP JUMPDEST PUSH0 PUSH2 0x143B PUSH1 0x16 DUP4 PUSH2 0xE0F JUMP JUMPDEST SWAP2 POP PUSH2 0x1446 DUP3 PUSH2 0x1407 JUMP JUMPDEST PUSH1 0x20 DUP3 ADD SWAP1 POP SWAP2 SWAP1 POP JUMP JUMPDEST PUSH0 PUSH1 0x20 DUP3 ADD SWAP1 POP DUP2 DUP2 SUB PUSH0 DUP4 ADD MSTORE PUSH2 0x1468 DUP2 PUSH2 0x142F JUMP JUMPDEST SWAP1 POP SWAP2 SWAP1 POP JUMP JUMPDEST PUSH32 0x4E487B7100000000000000000000000000000000000000000000000000000000 PUSH0 MSTORE PUSH1 0x11 PUSH1 0x4 MSTORE PUSH1 0x24 PUSH0 REVERT JUMPDEST PUSH0 PUSH2 0x14A6 DUP3 PUSH2 0xD98 JUMP JUMPDEST SWAP2 POP PUSH2 0x14B1 DUP4 PUSH2 0xD98 JUMP JUMPDEST SWAP3 POP DUP3 DUP3 MUL PUSH2 0x14BF DUP2 PUSH2 0xD98 JUMP JUMPDEST SWAP2 POP DUP3 DUP3 DIV DUP5 EQ DUP4 ISZERO OR PUSH2 0x14D6 JUMPI PUSH2 0x14D5 PUSH2 0x146F JUMP JUMPDEST JUMPDEST POP SWAP3 SWAP2 POP POP JUMP JUMPDEST PUSH32 0x4E487B7100000000000000000000000000000000000000000000000000000000 PUSH0 MSTORE PUSH1 0x12 PUSH1 0x4 MSTORE PUSH1 0x24 PUSH0 REVERT JUMPDEST PUSH0 PUSH2 0x1514 DUP3 PUSH2 0xD98 JUMP JUMPDEST SWAP2 POP PUSH2 0x151F DUP4 PUSH2 0xD98 JUMP JUMPDEST SWAP3 POP DUP3 PUSH2 0x152F JUMPI PUSH2 0x152E PUSH2 0x14DD JUMP JUMPDEST JUMPDEST DUP3 DUP3 DIV SWAP1 POP SWAP3 SWAP2 POP POP JUMP JUMPDEST PUSH0 PUSH2 0x1544 DUP3 PUSH2 0xD98 JUMP JUMPDEST SWAP2 POP PUSH2 0x154F DUP4 PUSH2 0xD98 JUMP JUMPDEST SWAP3 POP DUP3 DUP3 SUB SWAP1 POP DUP2 DUP2 GT ISZERO PUSH2 0x1567 JUMPI PUSH2 0x1566 PUSH2 0x146F JUMP JUMPDEST JUMPDEST SWAP3 SWAP2 POP POP JUMP JUMPDEST PUSH32 0x496E73756666696369656E742066756E647320746F206A6F696E207468652074 PUSH0 DUP3 ADD MSTORE PUSH32 0x7269700000000000000000000000000000000000000000000000000000000000 PUSH1 0x20 DUP3 ADD MSTORE POP JUMP JUMPDEST PUSH0 PUSH2 0x15C7 PUSH1 0x23 DUP4 PUSH2 0xE0F JUMP JUMPDEST SWAP2 POP PUSH2 0x15D2 DUP3 PUSH2 0x156D JUMP JUMPDEST PUSH1 0x40 DUP3 ADD SWAP1 POP SWAP2 SWAP1 POP JUMP JUMPDEST PUSH0 PUSH1 0x20 DUP3 ADD SWAP1 POP DUP2 DUP2 SUB PUSH0 DUP4 ADD MSTORE PUSH2 0x15F4 DUP2 PUSH2 0x15BB JUMP JUMPDEST SWAP1 POP SWAP2 SWAP1 POP JUMP JUMPDEST PUSH0 PUSH1 0xA0 DUP3 ADD SWAP1 POP PUSH2 0x160E PUSH0 DUP4 ADD DUP9 PUSH2 0xDF6 JUMP JUMPDEST PUSH2 0x161B PUSH1 0x20 DUP4 ADD DUP8 PUSH2 0xEBF JUMP JUMPDEST PUSH2 0x1628 PUSH1 0x40 DUP4 ADD DUP7 PUSH2 0xDF6 JUMP JUMPDEST PUSH2 0x1635 PUSH1 0x60 DUP4 ADD DUP6 PUSH2 0xDF6 JUMP JUMPDEST PUSH2 0x1642 PUSH1 0x80 DUP4 ADD DUP5 PUSH2 0xF8E JUMP JUMPDEST SWAP7 SWAP6 POP POP POP POP POP POP JUMP JUMPDEST PUSH32 0x4F6E6C7920746865206472697665722063616E20706572666F726D2074686973 PUSH0 DUP3 ADD MSTORE PUSH32 0x20616374696F6E00000000000000000000000000000000000000000000000000 PUSH1 0x20 DUP3 ADD MSTORE POP JUMP JUMPDEST PUSH0 PUSH2 0x16A6 PUSH1 0x27 DUP4 PUSH2 0xE0F JUMP JUMPDEST SWAP2 POP PUSH2 0x16B1 DUP3 PUSH2 0x164C JUMP JUMPDEST PUSH1 0x40 DUP3 ADD SWAP1 POP SWAP2 SWAP1 POP JUMP JUMPDEST PUSH0 PUSH1 0x20 DUP3 ADD SWAP1 POP DUP2 DUP2 SUB PUSH0 DUP4 ADD MSTORE PUSH2 0x16D3 DUP2 PUSH2 0x169A JUMP JUMPDEST SWAP1 POP SWAP2 SWAP1 POP JUMP JUMPDEST PUSH0 PUSH2 0x16E4 DUP3 PUSH2 0xD98 JUMP JUMPDEST SWAP2 POP PUSH32 0xFFFFFFFFFFFFFFFFFFFFFFFFFFFFFFFFFFFFFFFFFFFFFFFFFFFFFFFFFFFFFFFF DUP3 SUB PUSH2 0x1716 JUMPI PUSH2 0x1715 PUSH2 0x146F JUMP JUMPDEST JUMPDEST PUSH1 0x1 DUP3 ADD SWAP1 POP SWAP2 SWAP1 POP JUMP JUMPDEST PUSH0 DUP2 SWAP1 POP DUP2 PUSH0 MSTORE PUSH1 0x20 PUSH0 KECCAK256 SWAP1 POP SWAP2 SWAP1 POP JUMP JUMPDEST PUSH0 PUSH1 0x20 PUSH1 0x1F DUP4 ADD DIV SWAP1 POP SWAP2 SWAP1 POP JUMP JUMPDEST PUSH0 DUP3 DUP3 SHL SWAP1 POP SWAP3 SWAP2 POP POP JUMP JUMPDEST PUSH0 PUSH1 0x8 DUP4 MUL PUSH2 0x177D PUSH32 0xFFFFFFFFFFFFFFFFFFFFFFFFFFFFFFFFFFFFFFFFFFFFFFFFFFFFFFFFFFFFFFFF DUP3 PUSH2 0x1742 JUMP JUMPDEST PUSH2 0x1787 DUP7 DUP4 PUSH2 0x1742 JUMP JUMPDEST SWAP6 POP DUP1 NOT DUP5 AND SWAP4 POP DUP1 DUP7 AND DUP5 OR SWAP3 POP POP POP SWAP4 SWAP3 POP POP POP JUMP JUMPDEST PUSH0 DUP2 SWAP1 POP SWAP2 SWAP1 POP JUMP JUMPDEST PUSH0 PUSH2 0x17C2 PUSH2 0x17BD PUSH2 0x17B8 DUP5 PUSH2 0xD98 JUMP JUMPDEST PUSH2 0x179F JUMP JUMPDEST PUSH2 0xD98 JUMP JUMPDEST SWAP1 POP SWAP2 SWAP1 POP JUMP JUMPDEST PUSH0 DUP2 SWAP1 POP SWAP2 SWAP1 POP JUMP JUMPDEST PUSH2 0x17DB DUP4 PUSH2 0x17A8 JUMP JUMPDEST PUSH2 0x17EF PUSH2 0x17E7 DUP3 PUSH2 0x17C9 JUMP JUMPDEST DUP5 DUP5 SLOAD PUSH2 0x174E JUMP JUMPDEST DUP3 SSTORE POP POP POP POP JUMP JUMPDEST PUSH0 SWAP1 JUMP JUMPDEST PUSH2 0x1803 PUSH2 0x17F7 JUMP JUMPDEST PUSH2 0x180E DUP2 DUP5 DUP5 PUSH2 0x17D2 JUMP JUMPDEST POP POP POP JUMP JUMPDEST JUMPDEST DUP2 DUP2 LT ISZERO PUSH2 0x1831 JUMPI PUSH2 0x1826 PUSH0 DUP3 PUSH2 0x17FB JUMP JUMPDEST PUSH1 0x1 DUP2 ADD SWAP1 POP PUSH2 0x1814 JUMP JUMPDEST POP POP JUMP JUMPDEST PUSH1 0x1F DUP3 GT ISZERO PUSH2 0x1876 JUMPI PUSH2 0x1847 DUP2 PUSH2 0x1721 JUMP JUMPDEST PUSH2 0x1850 DUP5 PUSH2 0x1733 JUMP JUMPDEST DUP2 ADD PUSH1 0x20 DUP6 LT ISZERO PUSH2 0x185F JUMPI DUP2 SWAP1 POP JUMPDEST PUSH2 0x1873 PUSH2 0x186B DUP6 PUSH2 0x1733 JUMP JUMPDEST DUP4 ADD DUP3 PUSH2 0x1813 JUMP JUMPDEST POP POP JUMPDEST POP POP POP JUMP JUMPDEST PUSH0 DUP3 DUP3 SHR SWAP1 POP SWAP3 SWAP2 POP POP JUMP JUMPDEST PUSH0 PUSH2 0x1896 PUSH0 NOT DUP5 PUSH1 0x8 MUL PUSH2 0x187B JUMP JUMPDEST NOT DUP1 DUP4 AND SWAP2 POP POP SWAP3 SWAP2 POP POP JUMP JUMPDEST PUSH0 PUSH2 0x18AE DUP4 DUP4 PUSH2 0x1887 JUMP JUMPDEST SWAP2 POP DUP3 PUSH1 0x2 MUL DUP3 OR SWAP1 POP SWAP3 SWAP2 POP POP JUMP JUMPDEST PUSH2 0x18C7 DUP3 PUSH2 0xE05 JUMP JUMPDEST PUSH8 0xFFFFFFFFFFFFFFFF DUP2 GT ISZERO PUSH2 0x18E0 JUMPI PUSH2 0x18DF PUSH2 0x1129 JUMP JUMPDEST JUMPDEST PUSH2 0x18EA DUP3 SLOAD PUSH2 0x136F JUMP JUMPDEST PUSH2 0x18F5 DUP3 DUP3 DUP6 PUSH2 0x1835 JUMP JUMPDEST PUSH0 PUSH1 0x20 SWAP1 POP PUSH1 0x1F DUP4 GT PUSH1 0x1 DUP2 EQ PUSH2 0x1926 JUMPI PUSH0 DUP5 ISZERO PUSH2 0x1914 JUMPI DUP3 DUP8 ADD MLOAD SWAP1 POP JUMPDEST PUSH2 0x191E DUP6 DUP3 PUSH2 0x18A3 JUMP JUMPDEST DUP7 SSTORE POP PUSH2 0x1985 JUMP JUMPDEST PUSH1 0x1F NOT DUP5 AND PUSH2 0x1934 DUP7 PUSH2 0x1721 JUMP JUMPDEST PUSH0 JUMPDEST DUP3 DUP2 LT ISZERO PUSH2 0x195B JUMPI DUP5 DUP10 ADD MLOAD DUP3 SSTORE PUSH1 0x1 DUP3 ADD SWAP2 POP PUSH1 0x20 DUP6 ADD SWAP5 POP PUSH1 0x20 DUP2 ADD SWAP1 POP PUSH2 0x1936 JUMP JUMPDEST DUP7 DUP4 LT ISZERO PUSH2 0x1978 JUMPI DUP5 DUP10 ADD MLOAD PUSH2 0x1974 PUSH1 0x1F DUP10 AND DUP3 PUSH2 0x1887 JUMP JUMPDEST DUP4 SSTORE POP JUMPDEST PUSH1 0x1 PUSH1 0x2 DUP9 MUL ADD DUP9 SSTORE POP POP POP JUMPDEST POP POP POP POP POP POP JUMP JUMPDEST PUSH0 PUSH1 0x80 DUP3 ADD SWAP1 POP PUSH2 0x19A0 PUSH0 DUP4 ADD DUP8 PUSH2 0xDF6 JUMP JUMPDEST PUSH2 0x19AD PUSH1 0x20 DUP4 ADD DUP7 PUSH2 0xEBF JUMP JUMPDEST PUSH2 0x19BA PUSH1 0x40 DUP4 ADD DUP6 PUSH2 0xDF6 JUMP JUMPDEST DUP2 DUP2 SUB PUSH1 0x60 DUP4 ADD MSTORE PUSH2 0x19CC DUP2 DUP5 PUSH2 0xE3D JUMP JUMPDEST SWAP1 POP SWAP6 SWAP5 POP POP POP POP POP JUMP INVALID LOG2 PUSH5 0x6970667358 0x22 SLT KECCAK256 EXP 0xEB SAR 0xDC SHR SWAP16 PUSH0 TSTORE 0x27 0xD8 BYTE MLOAD 0xDB PUSH5 0x77FF2A5473 0xB5 0xA8 0xB8 PUSH20 0x24687BEFB2C78674E664736F6C634300081A0033 "
		},
		"gasEstimates": {
			"creation": {
				"codeDepositCost": "1333800",
				"executionCost": "6401",
				"totalCost": "1340201"
			},
			"external": {
				"completeTrip(uint256)": "infinite",
				"createTrip(uint256,string,string,string,bool)": "infinite",
				"getTransactionDetails(bytes32)": "infinite",
				"getTripDetails(uint256)": "infinite",
				"joinTrip(uint256)": "infinite",
				"taxRate()": "347",
				"tripCounter()": "2425"
			}
		},
		"methodIdentifiers": {
			"completeTrip(uint256)": "c1917e79",
			"createTrip(uint256,string,string,string,bool)": "c99e7333",
			"getTransactionDetails(bytes32)": "515a39b6",
			"getTripDetails(uint256)": "124c128e",
			"joinTrip(uint256)": "13c3ea33",
			"taxRate()": "771a3a1d",
			"tripCounter()": "6fa4ec27"
		}
	},
	"abi": [
		{
			"inputs": [],
			"stateMutability": "nonpayable",
			"type": "constructor"
		},
		{
			"anonymous": false,
			"inputs": [
				{
					"indexed": false,
					"internalType": "uint256",
					"name": "tripCode",
					"type": "uint256"
				},
				{
					"indexed": false,
					"internalType": "address",
					"name": "passenger",
					"type": "address"
				},
				{
					"indexed": false,
					"internalType": "uint256",
					"name": "amount",
					"type": "uint256"
				},
				{
					"indexed": false,
					"internalType": "uint256",
					"name": "tax",
					"type": "uint256"
				},
				{
					"indexed": false,
					"internalType": "bytes32",
					"name": "transactionHash",
					"type": "bytes32"
				}
			],
			"name": "PassengerJoinedTrip",
			"type": "event"
		},
		{
			"anonymous": false,
			"inputs": [
				{
					"indexed": false,
					"internalType": "uint256",
					"name": "tripCode",
					"type": "uint256"
				}
			],
			"name": "TripCompleted",
			"type": "event"
		},
		{
			"anonymous": false,
			"inputs": [
				{
					"indexed": false,
					"internalType": "uint256",
					"name": "tripCounter",
					"type": "uint256"
				},
				{
					"indexed": false,
					"internalType": "address",
					"name": "driver",
					"type": "address"
				},
				{
					"indexed": false,
					"internalType": "uint256",
					"name": "fare",
					"type": "uint256"
				},
				{
					"indexed": false,
					"internalType": "string",
					"name": "details",
					"type": "string"
				}
			],
			"name": "TripCreated",
			"type": "event"
		},
		{
			"inputs": [
				{
					"internalType": "uint256",
					"name": "_tripCode",
					"type": "uint256"
				}
			],
			"name": "completeTrip",
			"outputs": [],
			"stateMutability": "nonpayable",
			"type": "function"
		},
		{
			"inputs": [
				{
					"internalType": "uint256",
					"name": "_fare",
					"type": "uint256"
				},
				{
					"internalType": "string",
					"name": "_details",
					"type": "string"
				},
				{
					"internalType": "string",
					"name": "_rankName",
					"type": "string"
				},
				{
					"internalType": "string",
					"name": "_registration",
					"type": "string"
				},
				{
					"internalType": "bool",
					"name": "_verified",
					"type": "bool"
				}
			],
			"name": "createTrip",
			"outputs": [
				{
					"internalType": "uint256",
					"name": "",
					"type": "uint256"
				}
			],
			"stateMutability": "nonpayable",
			"type": "function"
		},
		{
			"inputs": [
				{
					"internalType": "bytes32",
					"name": "_transactionHash",
					"type": "bytes32"
				}
			],
			"name": "getTransactionDetails",
			"outputs": [
				{
					"internalType": "uint256",
					"name": "tripCode",
					"type": "uint256"
				},
				{
					"internalType": "address",
					"name": "passenger",
					"type": "address"
				},
				{
					"internalType": "uint256",
					"name": "amount",
					"type": "uint256"
				},
				{
					"internalType": "uint256",
					"name": "tax",
					"type": "uint256"
				},
				{
					"internalType": "uint256",
					"name": "timestamp",
					"type": "uint256"
				}
			],
			"stateMutability": "view",
			"type": "function"
		},
		{
			"inputs": [
				{
					"internalType": "uint256",
					"name": "_tripCode",
					"type": "uint256"
				}
			],
			"name": "getTripDetails",
			"outputs": [
				{
					"internalType": "uint256",
					"name": "tripCode",
					"type": "uint256"
				},
				{
					"internalType": "string",
					"name": "rankName",
					"type": "string"
				},
				{
					"internalType": "string",
					"name": "registration",
					"type": "string"
				},
				{
					"internalType": "bool",
					"name": "verified",
					"type": "bool"
				},
				{
					"internalType": "string",
					"name": "route",
					"type": "string"
				},
				{
					"internalType": "uint256",
					"name": "price",
					"type": "uint256"
				},
				{
					"internalType": "uint256",
					"name": "capacity",
					"type": "uint256"
				},
				{
					"internalType": "address",
					"name": "driver",
					"type": "address"
				},
				{
					"internalType": "address[]",
					"name": "passengers",
					"type": "address[]"
				},
				{
					"internalType": "bytes32",
					"name": "transactionHash",
					"type": "bytes32"
				},
				{
					"internalType": "bool",
					"name": "completed",
					"type": "bool"
				}
			],
			"stateMutability": "view",
			"type": "function"
		},
		{
			"inputs": [
				{
					"internalType": "uint256",
					"name": "_tripCode",
					"type": "uint256"
				}
			],
			"name": "joinTrip",
			"outputs": [],
			"stateMutability": "payable",
			"type": "function"
		},
		{
			"inputs": [],
			"name": "taxRate",
			"outputs": [
				{
					"internalType": "uint256",
					"name": "",
					"type": "uint256"
				}
			],
			"stateMutability": "view",
			"type": "function"
		},
		{
			"inputs": [],
			"name": "tripCounter",
			"outputs": [
				{
					"internalType": "uint256",
					"name": "",
					"type": "uint256"
				}
			],
			"stateMutability": "view",
			"type": "function"
		}
	]
}